:060000000A128A11FA2F1A
:100E980083160313111483128C1D532F542F4F2FB5
:100EA8008C11080083160313111583128C1D5D2FF6
:100EB8005E2F592F8C110800831603139115831286
:100EC8008C1D672F682F632F8C1113080800F20000
:100ED80072088312031393008C1D732F742F702FC5
:100EE8008C118316031311080800831603130F14BB
:100EF8000F178F160F128316031788018901FF3009
:100F080083160313850008108810081188118312AE
:100F18000313880180300A128A1195270A128A1150
:100F28000800F20083160313871507167208940049
:100F38002830831203139400831603139101803021
:100F48007206031DA82FA92FAC2F77309300B32F5B
:100F58007208031DB02FB12FB32F1D309300080066
:100F68000A128A1179270A128A11831203130508B3
:100F78000F39F1000A128A114C270A128A11A0307F
:100F88000A128A116B270A128A1171080A128A1129
:100F98006B270A128A110A128A1156270A128A1115
:100FA8000330F300F30BD62F0A128A114C270A12CA
:100FB8008A11A1300A128A116B270A128A110A12A1
:100FC8008A1160270A128A11F0007008831203132D
:100FD80088000A128A1156270A128A110330F30070
:100FE800F30BF42FB92F0A128A110028F001F1012E
:080FF80083010A128A11B42FD3
:08400000FF3FFF3FFF3FFF3FC0
:04400E00D420FF3F7C
:00000001FF
