:100000000A128A11E62FFF1B0D2883137F1883170E
:100010000008840A0319FF0A080000308A00040857
:10002000840A82070034013400340A340034643412
:100030000034E8340334103427346D3469346E34BA
:10004000753474346F347334753474346F343A34B3
:10005000203425343034323475340034253430348F
:10006000323475342F3425343034323475342F34EF
:10007000323430342534303432347534003444343E
:10008000693461342034733465346D3461346E34D2
:1000900061343A3420342534753400342534303416
:1000A000323475343A3425343034323475343A3499
:1000B0002534303432347534003453346534673485
:1000C00075346E3464346F343A342034253430342B
:1000D00032347534003448346F34723461343A3415
:1000E00020342534303432347534003441344E34C5
:1000F0004F343A34203425343034323475340034BB
:100100004434693461343A34203425343034323460
:10011000753400344D34653473343A342034253426
:10012000303432347534003428346E3475346C34E1
:100130006C34293400342534733420342034203492
:10014000203400344134443443343A3420340034CD
:0E0150002534753420340034253473340034E3
:10016800780879040319B928BA28E928FD01FD0A95
:10017800C82801300310F80DF90DFF3E031DBE28F5
:100188000130FC007C08FD07F91FCB28CC28BD28CE
:1001980079087B02031DD22878087A02031CD52827
:1001A800D628DC287808FA027908031CFB03FB022E
:1001B80001300310F90CF80CFF3E031DDD28013057
:1001C800FD02031DE828E928CC287B08F9007A08F5
:1001D800F800080044346F346D3469346E34673481
:1001E8006F3400340034003400344C3475346E34C9
:1001F800653473340034003400340034003400347F
:100208004D346134723474346534733400340034DA
:100218000034003400344D34693465347234633446
:100228006F346C3465347334003400344A347534B4
:100238006534763465347334003400340034003463
:10024800003456346934653472346E34653473342A
:10025800003400340034003453346134623461347F
:1002680064346F3400340034003400340034003017
:100278000A128A159C250A128A113430F500F130C9
:10028800F400F40B4529F50B45294A2903300A12D5
:100298008A1563250A128A110D30F500FB30F40027
:1002A800F40B5429F50B5429592903300A128A15DD
:1002B80063250A128A118530F400F40B6129033092
:1002C8000A128A1563250A128A1102300A128A153F
:1002D80063250A128A1102300A128A1563250A1246
:1002E8008A1108300A128A1563250A128A11003009
:1002F8000A128A1563250A128A110C300A128A1505
:1003080063250A128A1100300A128A1563250A1217
:100318008A1106300A128A1563250A128A11423098
:10032800F400F40B952900000800FB007F30FA0068
:100338007A08F9053F30FA007A08F7050A128A1593
:10034800B5240A128A11D0300A128A15EC240A122E
:100358008A1100300A128A15EC240A128A117908C7
:100368000A128A1534250A128A110A128A15EC24EF
:100378000A128A1178080A128A1534250A128A1173
:100388000A128A15EC240A128A1177080A128A15A9
:1003980034250A128A110A128A15EC240A128A11C3
:1003A80076080A128A1534250A128A110A128A1541
:1003B800EC240A128A117B080A128A1534250A12BB
:1003C8008A110A128A15EC240A128A1174080A1270
:1003D8008A1534250A128A110A128A15EC240A127F
:1003E8008A1175080A128A1534250A128A110A1206
:1003F8008A15EC240A128A110A128A15BF240A12D5
:100408008A11080083120313D3003E30CB00FB2B64
:10041800253052060319112A122A1C2A530884006F
:100428005208831380000130C4004408D307FB2B13
:10043800D001D101C701252A47150130C40044085D
:10044800BD073D0884000A128A110D200A128A117C
:10045800C400C5014508003A0319332A382A44085C
:10046800303A0319202A382A3D0884000A128A11D2
:100478000D200A128A110A128A15FA240A128A1100
:10048800031C472A482A112B83120313D001D101D8
:100498000A30F0000030F100831203135108F30012
:1004A8005008F2000A128A15E0250A128A1171080A
:1004B80083120313D1007008D0003D0884000A128B
:1004C8008A110D200A128A11D03EC400FF30031889
:1004D8000030C5004408D0070318D10A4508D107E1
:1004E8000130C4004408BD073D0884000A128A117F
:1004F8000D200A128A110A128A15FA240A128A1180
:100508000318872A882A4C2A112B4B088400831346
:100518000008CC000030CD000130C4004408CB07EF
:100528004C084D04031D992A9A2A9E2A8230CC0031
:100538008030CD00CE01CF01A72A0130CE070318A5
:10054800CF0A0030CF074E084C0784004D08031827
:100558004D0AFF000A128A1103200A128A11003A72
:10056800031DB72AB82AA12A51084F02031DBE2A23
:1005780050084E020318C12AC22AC92A4E08D002BE
:100588004F08031CD103D102D52AD001D101D52AA5
:10059800530884002030831380000130C4004408CD
:1005A800D307FF30D0070318D10AFF30D107500A0C
:1005B800031DE22A510A031DE22AE32ACC2AFD2A56
:1005C8004D08FF004C0884000A128A1103200A1201
:1005D8008A11C40053088400440883138000013042
:1005E800CC070318CD0A0030CD070130C4004408F9
:1005F800D3070130CE020030031CCF03CF024E0ACE
:10060800031D0A2B4F0A031D0A2B0B2BE42AFB2B75
:10061800C030C4004408C704302B013083120313D0
:10062800BD07FF303D0784000A128A110D200A1207
:100638008A11D200C400C5014508003A0319252BC8
:10064800FB2B4408003A03190B2C733A0319892A27
:10065800063A03190C2BFB2B4B0884008313000864
:10066800C800840A0008C9000230C4004408CB0747
:10067800D201D20A5208C4004407013E84000A127B
:100688008A110D200A128A11C5000A128A110D203A
:100698000A128A11C60046084902031D552B45084F
:1006A80048020318582B592B5A2B642B0130C400CD
:1006B8004408D20705305206031D632B642B3E2BDA
:1006C8005108803A803C031D6B2B500852020318D6
:1006D8006E2B6F2B7B2B831203135208C400C501AA
:1006E8004408D0024508031CD103D1027F2B831292
:1006F8000313D001D101471D822B832B9F2B500858
:1007080051040319882B892BBA2B530884003030E5
:10071800831380000130C4004408D307FF30D0079A
:100728000318D10AFF30D10750085104031D9D2B2F
:100738009E2B892BBA2B500851040319A42BA52BE7
:10074800BA2B530884002030831380000130C40082
:100758004408D307FF30D0070318D10AFF30D10768
:1007680050085104031DB92BBA2BA52B5208CA00F7
:10077800F22B0A30F8000030F9004A08C400440798
:10078800013E84000A128A110D200A128A11F00013
:100798000A128A110D200A128A11F1004908F30081
:1007A8004808F2000A128A15E2260A128A1171080C
:1007B800FB007008FA000A128A11B4200A128A1182
:1007C8007808303E83120313D2005308840052087D
:1007D800831380000130C4004408D307FF30C400ED
:1007E8004408CA074A0A031DFA2BFB2BBD2B01300C
:1007F800BD07FF303D0784000A128A110D200A1236
:100808008A11D2005208031D0A2C0B2C0C2A5308FB
:100818008400831380010800BF2F2630F4000030C5
:10082800F5002530F6000030F7002430F8000030DD
:10083800F9002330FA000030FB000A128A156C27F1
:100848000A128A112230F4000030F5002130F60037
:100858000030F7002030F8000030F9000A128A153D
:1008680069260A128A11F401F40A01300A128A155B
:1008780026270A128A119030F5008030F6000A12F5
:100888008A15A0260A128A11963083120313BD0016
:100898002808D400D5015408BE005508BF002930E7
:1008A8000A128A1106220A128A11F401F40A023085
:1008B8000A128A1526270A128A112930F5000030F3
:1008C800F6000A128A15A0260A128A111C30831211
:1008D8000313BD002608BE00BF01BE1BBF032508C9
:1008E800C000C101C01BC1032408C200C301C21B50
:1008F800C30329300A128A1106220A128A11063005
:10090800F40001300A128A1526270A128A112930A2
:10091800F5000030F6000A128A15A0260A128A117C
:100928003C3083120313BD002208BE00BF01BE1B6A
:10093800BF032108C000C101C01BC1032008C200B9
:10094800C301C21BC30329300A128A1106220A12E4
:100958008A110830F40002300A128A1526270A1272
:100968008A112930F5000030F6000A128A15A026EF
:100978000A128A11033083120313D6000830D500F7
:100988007630D400D40BC62CD50BC62CD60BC62C6F
:100998000000E52FF401F40A01300A128A1526270F
:1009A8000A128A116E3083120313BD002608BE0096
:1009B800BF01BE1BBF0329300A128A1106220A1280
:1009C8008A112930F5000030F6000A128A15A0268F
:1009D8000A128A1183120313851CF32CF42C112D8F
:1009E8008518F72CF82CF42C343083120313D50017
:1009F800F130D400D40BFE2CD50BFE2C0130831221
:100A08000313D4005408A6072608803A603E031C46
:100A18000E2D0F2D112D1F30A600051D142D152D7F
:100A2800E52F0519182D192D152D343083120313B0
:100A3800D500F130D400D40B1F2DD50B1F2DFF305E
:100A480083120313D4005408A6072608803A7F3E71
:100A580003182F2D302DE52FA601A60AE52FF40146
:100A6800F40A01300A128A1526270A128A117830E8
:100A780083120313BD002508BE00BF01BE1BBF03C0
:100A880029300A128A1106220A128A112930F50021
:100A98000030F6000A128A15A0260A128A1183125B
:100AA8000313851C582D592D762D85185C2D5D2D29
:100AB800592D343083120313D500F130D400D40BF0
:100AC800632DD50B632D013083120313D400540812
:100AD800A5072508803A733E031C732D742D762DC7
:100AE8000C30A500051D792D7A2DE52F05197D2DD2
:100AF8007E2D7A2D343083120313D500F130D400C3
:100B0800D40B842DD50B842DFF3083120313D4000E
:100B18005408A5072508803A7F3E0318942D952D83
:100B2800E52FA501A50AE52FF401F40A01300A1200
:100B38008A1526270A128A11643083120313BD000E
:100B48002408BE00BF01BE1BBF0329300A128A1148
:100B580006220A128A112930F5000030F6000A121E
:100B68008A15A0260A128A1183120313851CBD2D2B
:100B7800BE2DDB2D8518C12DC22DBE2D343083121C
:100B88000313D500F130D400D40BC82DD50BC82DD4
:100B9800013083120313D4005408A4072408803AB0
:100BA8001C3E031CD82DD92DDB2D6330A400051D58
:100BB800DE2DDF2DE52F0519E22DE32DDF2D343055
:100BC80083120313D500F130D400D40BE92DD50BD3
:100BD800E92DFF3083120313D4005408A407240A14
:100BE800031DF72DF82DE52FA401E52FF401F40AD4
:100BF80001300A128A1526270A128A112D3083120B
:100C08000313BD002308BE00BF01BE1BBF0329306C
:100C18000A128A1106220A128A112930F5000030B8
:100C2800F6000A128A15A0260A128A11F401F40A9B
:100C380002300A128A1526270A128A11893083126D
:100C48000313BD000B30F00023080A128A151F2574
:100C58000A128A11A03E83120313BE0029300A1219
:100C68008A1106220A128A112930F5000030F6008E
:100C78000A128A15A0260A128A1183120313851CE8
:100C8800462E472E642E85184A2E4B2E472E34307A
:100C980083120313D500F130D400D40B512ED50B99
:100CA800512E013083120313D4005408A3072308DC
:100CB800803A793E031C612E622E642E0630A30012
:100CC800051D672E682EE52F05196B2E6C2E682ED4
:100CD800343083120313D500F130D400D40B722EB4
:100CE800D50B722EFF3083120313D4005408A307C8
:100CF800230A031D802E812EE52FA301E52FF40181
:100D0800F40A01300A128A1526270A128A11593064
:100D180083120313BD002208BE00BF01BE1BBF0320
:100D280029300A128A1106220A128A112930F5007E
:100D38000030F6000A128A15A0260A128A118312B8
:100D48000313851CA82EA92EC62E8518AC2EAD2EF1
:100D5800A92E343083120313D500F130D400D40BFC
:100D6800B32ED50BB32E013083120313D4005408CD
:100D7800A2072208803A683E031CC32EC42EC62E42
:100D88001730A200051DC92ECA2EE52F0519CD2E34
:100D9800CE2ECA2E343083120313D500F130D4007E
:100DA800D40BD42ED50BD42EFF3083120313D400CA
:100DB8005408A207220A031DE22EE32EE52FA20102
:100DC800E52FF401F40A01300A128A1526270A12BF
:100DD8008A110B3083120313BD002108BE00BF0126
:100DE800BE1BBF0329300A128A1106220A128A1171
:100DF8002930F5000030F6000A128A15A0260A12DA
:100E08008A1183120313851C0A2F0B2F282F85188C
:100E18000E2F0F2F0B2F343083120313D500F13010
:100E2800D400D40B152FD50B152F013083120313C3
:100E3800D4005408A1072108803A443E031C252FFA
:100E4800262F282F3B30A100051D2B2F2C2FE52FF7
:100E580005192F2F302F2C2F343083120313D50070
:100E6800F130D400D40B362FD50B362FFF30831238
:100E78000313D4005408A107210A031D442F452F4A
:100E8800E52FA101E52FF401F40A01300A128A15B1
:100E980026270A128A114B3083120313BD0020083B
:100EA800BE00BF01BE1BBF0329300A128A110622E9
:100EB8000A128A112930F5000030F6000A128A1544
:100EC800A0260A128A1183120313851C6C2F6D2F1A
:100ED8008A2F8518702F712F6D2F343083120313CA
:100EE800D500F130D400D40B772FD50B772F0130F4
:100EF80083120313D4005408A0072008803A443E04
:100F0800031C872F882F8A2F3B30A000051D8D2FAB
:100F18008E2FE52F0519912F922F8E2F34308312A3
:100F28000313D500F130D400D40B982FD50B982F8C
:100F3800FF3083120313D4005408A007200A031DAE
:100F4800A62FA72FE52FA001E52F2508F4002408D8
:100F5800F5002308F6002208F7002108F800200809
:100F6800F90026080A128A1199210A128A11831295
:100F78000313A701E52F831203132708D400D50113
:100F8800D41BD5035508003A0319CB2FA92F5408B1
:100F9800003A0319112C013A0319CE2C033A03190C
:100FA800332D013A0319982D073A0319FA2D013AFE
:100FB8000319832E033A0319E52E013A0319472F23
:100FC800A92F08008313ED30FD000030FE00EE303D
:100FD800FF00A03084000A128A1510250A128A110F
:100FE800203084003D300A128A15A3240A128A117F
:080FF80083010A128A15B42FCF
:1019460064008001840A0406031900340406A42CEA
:1019560083160313911483128C1DB22CB32CAE2C58
:101966008C11080083160313111483128C1DBC2CD2
:10197600BD2CB82C8C110800831603131115831285
:101986008C1DC62CC72CC22C8C1108008316031381
:101996009116111683128C1DD12CD22CCD2C8C11A4
:1019A600080083160313911583128C1DDB2CDC2C87
:1019B600D72C8C111308080000300A128A156325EB
:1019C6000A128A1501300A128A1563250A128A1527
:1019D6000800F00070088312031393008C1DF42C8A
:1019E600F52CF12C8C118316031311080800F10055
:1019F600F0013A3071020318012D022D0A2D303004
:101A06007102031C072D082D0A2DF001F00A700C37
:101A160008007E088A007F0882000A128A150C25B3
:101A26000A128A158000840A04087D060319003408
:101A3600FF0A0319FE0A102DF300F201731C242D70
:101A4600252D292D7008F1007108F2070310F00DFD
:101A56000310F30C7308031D312D322D212D72084E
:101A66000800F1007108F300F2010A307302031C4A
:101A76003D2D3E2D452D0A30F3021030F000700842
:101A8600F207382D7308F0007008F2077208080094
:101A9600F2007208F3000310F30C7830F0007008BF
:101AA600F3057308F00002300310F00CFF3E031D2F
:101AB600572D72080F397007F10073087107080077
:101AC600F30083120313081373080A128A159C2560
:101AD6000A128A158312031388170B30F20062303C
:101AE600F100F10B742DF20B742D00008312031319
:101AF60088130800F000831603138715071670086D
:101B06009400283083120313940083160313910163
:101B160080307006031D902D912D942D1330930067
:101B26009B2D7008031D982D992D9B2D1D3093001C
:101B36000800F000701CA02DA12DA52D8312031303
:101B46000616A82D831203130612F01CAB2DAC2D1E
:101B5600AE2D8616AF2D8612701DB22DB32DB52D66
:101B66000617B62D0613F01DB92DBA2DBC2D8617F6
:101B7600BD2D861308008316031788018901831675
:101B860003130514851405158601880183120313B2
:101B9600860188018501831603130F178F160F160A
:101BA6000F140A128A113B210A128A1580300A1272
:101BB6008A157D250A128A150800F401F501701CA4
:101BC600E52DE62DEC2D7208F4070318F50A7308C7
:101BD600F50701300310F20DF30DFF3E031DED2D49
:101BE60001300310F10CF00CFF3E031DF42D7008BC
:101BF6007104031DFF2D002EE22D7508F1007408F7
:101C0600F0000800F1000A128A15B5240A128A1596
:101C1600D0300A128A15EC240A128A1571080A12A3
:101C26008A15EC240A128A150A128A15AB240A129E
:101C36008A15D1300A128A15EC240A128A150A125C
:101C46008A15D4240A128A15F2000A128A15C924A2
:101C56000A128A150A128A15BF240A128A157208F0
:101C66000800F40074080F39F2007408F039F30024
:101C76008312031308177308F10004300310F10CE4
:101C8600FF3E031D412E71080A128A159C250A1271
:101C96008A158312031388171A30F100F10B512E9F
:101CA600000083120313881372080A128A159C25F2
:101CB6000A128A158312031388171A30F100F10BE2
:101CC600622E00008312031388130800780884002C
:101CD6008317791C831300300A128A1505260A1207
:101CE6008A157F390A128A154B250A128A15800031
:101CF600760884008317771C831301300A128A152D
:101D060005260A128A157F390A128A154B250A12E8
:101D16008A158000740884008317751C83130230AB
:101D26000A128A1505260A128A153F390A128A15D9
:101D36004B250A128A1580000800FA01FB01C52E00
:101D46007A087507F8007608F7000318F70AFA1FED
:101D5600AD2EF7037708F900790883120313FF0005
:101D6600780884000A128A1103200A128A150A12B8
:101D76008A1534260A128A150130FA070318FB0A57
:101D86000030FB077A087507F8007608F700031895
:101D9600F70AFA1FCF2EF7037708F900790883129E
:101DA6000313FF00780884000A128A1103200A121E
:101DB6008A15003A031DE02EE12EA32E0800F50138
:101DC600F601700871040319E92EEA2E212FF70196
:101DD600F70AF82E01300310F00DF10DFF3E031D3A
:101DE600EE2E0130F4007408F707F11FFB2EFC2ECF
:101DF600ED2E01300310F50DF60DFF3E031DFD2EF1
:101E060071087302031D092F70087202031C0C2F40
:101E16000D2F142F7008F2027108031CF303F3024E
:101E2600751401300310F10CF00CFF3E031D152F45
:101E36000130F702031D202F212FFC2E7608F1001A
:101E46007508F0000800F6007603031D2B2F2C2FD3
:101E5600492F74087F3EF9007908F5000430031015
:101E6600F50CFF3E031D322F7508F70079080F3970
:101E7600F80077080A128A1563250A128A15780867
:101E86000A128A1563250A128A156B2F0230760606
:101E9600031D4E2F4F2F6B2F7408BF3EF900790894
:101EA600F50004300310F50CFF3E031D552F750891
:101EB600F70079080F39F80077080A128A156325A2
:101EC6000A128A1578080A128A1563250A128A15D3
:101ED60008007A08840083177B1C831303300A12D8
:101EE6008A1505260A128A157F390A128A154B2584
:101EF6000A128A158000740884008317751C8313E0
:101F060004300A128A1505260A128A153F390A1262
:101F16008A154B250A128A158000760884008317D5
:101F2600771C831305300A128A1505260A128A15AC
:101F36001F390A128A154B250A128A15800078085D
:101F460084008317791C831306300A128A15052626
:101F56000A128A150A128A154B250A128A1580005A
:101F660008000A128A15BE250A128A150A128A154F
:101F7600B5240A128A1551300A128A15EC240A125F
:101F86008A150A128A15D4240A128A158312031393
:101F9600A8000A128A15BF240A128A150530831270
:101FA6000313D700D70BD52FD82F83120313051C85
:101FB600DD2FDE2FF72F0518E12FE22FDE2F34302D
:101FC60083120313D800F130D700D70BE82FD80BB4
:101FD600E82F0A128A15DF240A128A1501308312A5
:101FE6000313D7005708A7070A128A1110240A12EA
:0A1FF6008A15B92F0A128A1100287B
:08400000FF3FFF3FFF3FFF3FC0
:04400E00D420FF3F7C
:00000001FF
