:100000000A128A11E62FFF1B0D2883137F1883170E
:100010000008840A0319FF0A080000308A00040857
:10002000840A82070034013400340A340034643412
:100030000034E8340334103427346D3469346E34BA
:10004000753474346F347334753474346F343A34B3
:10005000203425343034323475340034253430348F
:10006000323475342F3425343034323475342F34EF
:10007000323430342534303432347534003444343E
:10008000693461342034733465346D3461346E34D2
:1000900061343A3420342534753400342534303416
:1000A000323475343A3425343034323475343A3499
:1000B0002534303432347534003453346534673485
:1000C00075346E3464346F343A342034253430342B
:1000D00032347534003448346F34723461343A3415
:1000E00020342534303432347534003441344E34C5
:1000F0004F343A34203425343034323475340034BB
:100100004434693461343A34203425343034323460
:10011000753400344D34653473343A342034253426
:10012000303432347534003428346E3475346C34E1
:100130006C34293400342534733420342034203492
:10014000203400344134443443343A3400342534C8
:0C0150006434203400342534733400344F
:100162008316031789018316031386018801013060
:100172008500831203138601880185018316031308
:100182000F178F160F160F1480300A128A15B12519
:100192000A128A11080044346F346D3469346E34A3
:1001A20067346F3400340034003400344C34753416
:1001B2006E34653473340034003400340034003457
:1001C20000344D3461347234743465347334003421
:1001D20000340034003400344D34693465347234F0
:1001E20063346F346C3465347334003400344A340D
:1001F2007534653476346534733400340034003435
:100202000034003456346934653472346E346534E3
:1002120073340034003400340034533461346234B3
:10022200613464346F3400340034003400340034F8
:100232000A128A11B1200A128A110A128A116A213B
:100242000A128A110A128A1500250A128A115130DD
:100252000A128A1537250A128A110A128A151F25CF
:100262000A128A1183120313A8000A128A150A2598
:100272000A128A11053083120313D700D70B3F29C4
:10028200422983120313051C4729482961290518AD
:100292004B294C294829343083120313D800F130FA
:1002A200D700D70B5229D80B52290A128A152A25B0
:1002B2000A128A11013083120313D7005708A707C5
:1002C2000A128A1123240A128A1123290A128A1174
:1002D200002800300A128A15D0250A128A113430F9
:1002E200F500F130F400F40B7429F50B7429792927
:1002F20003300A128A1597250A128A110D30F50069
:10030200FB30F400F40B8329F50B83298829033091
:100312000A128A1597250A128A118530F400F40B05
:10032200902903300A128A1597250A128A1102307F
:100332000A128A1597250A128A1102300A128A15A0
:1003420097250A128A1108300A128A1597250A126D
:100352008A1100300A128A1597250A128A110C3066
:100362000A128A1597250A128A1100300A128A1572
:1003720097250A128A1106300A128A1597250A123F
:100382008A114230F400F40BC429000008008312E1
:100392000313D3003E30CA000E2C25305006031939
:1003A200D329D429DE2953088400500883138000FE
:1003B2000130C4004408D3070E2CD101D201CF0171
:1003C200E7294F150130C4004408BD073D088400E9
:1003D2000A128A110D200A128A11C400C5014508A9
:1003E200003A0319F529FA294408303A0319E22997
:1003F200FA293D0884000A128A110D200A128A1174
:100402000A128A1545250A128A11031C092A0A2A88
:10041200D02A83120313D101D2010A30F000003036
:10042200F100831203135208F3005108F2000A127A
:100432008A15F2250A128A11710883120313D20057
:100442007008D1003D0884000A128A110D200A1298
:100452008A11D03EC400FF3003180030C5004408A2
:10046200D1070318D20A4508D2070130C400440854
:10047200BD073D0884000A128A110D200A128A1152
:100482000A128A1545250A128A110318492A4A2A8C
:100492000E2AD02A4A08840083130008C8000030BC
:1004A200C9000130C4004408CA0748084904031DB2
:1004B2005B2A5C2A602A8230C8008030C900CB01E6
:1004C200CC01692A0130CB070318CC0A0030CC07D3
:1004D2004B084807840049080318490AFF000A121A
:1004E2008A1103200A128A11003A031D792A7A2AF4
:1004F200632A52084C02031D802A51084B0203183A
:10050200832A842A8B2A4B08D1024C08031CD2036B
:10051200D202972AD101D201972A530884002030AF
:10052200831380000130C4004408D307FF30D10791
:100532000318D20AFF30D207510A031DA42A520A15
:10054200031DA42AA52A8E2ABF2A4908FF004808AB
:1005520084000A128A1103200A128A11C400530865
:1005620084004408831380000130C8070318C90AB5
:100572000030C9070130C4004408D3070130CB0260
:100582000030031CCC03CC024B0A031DCC2A4C0ABC
:10059200031DCC2ACD2AA62A0E2C4F17F52A01308C
:1005A20083120313BD07FF303D0784000A128A112C
:1005B2000D200A128A11D000C400C5014508003A74
:1005C2000319E42A0E2C4408003A03191E2C643A3B
:1005D2000319F52A0D3A0319F52A1A3A03194B2A77
:1005E200063A0319CE2A0E2C4F1BF82AF92A132B8E
:1005F2004A08840083130008CD00840A0008CE0054
:100602000230C4004408CA07CE1F082B092B1F2B37
:100612000330C4004408CF04CD09CE09CD0A031922
:10062200CE0A1F2B4A08840083130008CD00840AD7
:100632000008CE000230C4004408CA07D001D00A24
:100642005008C4004407013E84000A128A110D209A
:100652000A128A11C5000A128A110D200A128A1181
:10066200C60046084E02031D382B45084D020318EA
:100672003B2B3C2B3D2B472B0130C4004408D007B9
:1006820005305006031D462B472B212B51085204DF
:1006920003194C2B4D2B592B4F0803390319522B9D
:1006A200532B592BFF30D1070318D20AFF30D20740
:1006B2005208803A803C031D602B510850020318F7
:1006C200632B642B702B831203135008C400C501E3
:1006D2004408D1024508031CD203D202742B8312B0
:1006E2000313D101D2014F1D772B782BA32B4F0877
:1006F200033903197D2B7E2B872B530884002D3061
:10070200831380000130C4004408D3075108520407
:1007120003198C2B8D2BCD2B53088400303083137F
:1007220080000130C4004408D307FF30D10703180A
:10073200D20AFF30D20751085204031DA12BA22B6B
:100742008D2BCD2B510852040319A82BA92BBE2B9C
:10075200530884002030831380000130C400440811
:10076200D307FF30D1070318D20AFF30D20751084E
:100772005204031DBD2BBE2BA92B4F0803390319AD
:10078200C32BC42BCD2B530884002D308313800040
:100792000130C4004408D3075008C700052C0A30B2
:1007A200F8000030F9004708C4004407013E840005
:1007B2000A128A110D200A128A11F0000A128A11F5
:1007C2000D200A128A11F1004E08F3004D08F200C2
:1007D2000A128A152E270A128A117108FB00700864
:1007E200FA000A128A15B2260A128A117808303ED5
:1007F20083120313D000530884005008831380002F
:100802000130C4004408D307FF30C4004408C707BE
:10081200470A031D0D2C0E2CD02B0130BD07FF30D3
:100822003D0784000A128A110D200A128A11D00093
:100832005008031D1D2C1E2CCE295308840083133F
:1008420080010800831203132708031D292C2A2C78
:10085200E62C2630F4000030F5002530F60000309A
:10086200F7002430F8000030F9002330FA0000309D
:10087200FB000A128A15B8270A128A112230F400E4
:100882000030F5002130F6000030F7002030F8008B
:100892000030F9000A128A157B260A128A11F40125
:1008A200F40A01300A128A1572270A128A1190304C
:1008B200F5008030F6000A128A15EC260A128A1117
:1008C200F401F40A02300A128A1572270A128A11F6
:1008D200953083120313BD002808D400D5015408B3
:1008E200BE005508BF0029300A128A11C8210A1217
:1008F2008A112930F5000030F6000A128A15EC261A
:100902000A128A113C3083120313BD002208BE0072
:10091200BF01BE1BBF032108C000C101C01BC10330
:100922002008C200C301C21BC30329300A128A1164
:10093200C8210A128A110830F40001300A128A15FD
:1009420072270A128A112930F5000030F6000A12C5
:100952008A15EC260A128A11033083120313D60079
:100962000830D5007630D400D40BB52CD50BB52C7D
:10097200D60BB52C00001C3083120313BD002608D1
:10098200BE00BF01BE1BBF032508C000C101C01BC2
:10099200C1032408C200C301C21BC30329300A12C7
:1009A2008A11C8210A128A110630F40002300A1292
:1009B2008A1572270A128A112930F5000030F600D2
:1009C2000A128A15EC260A128A11831203132703CC
:1009D200031DEC2CED2C512DF401F40A01300A1206
:1009E2008A1572270A128A116E3083120313BD0010
:1009F2002608BE00BF01BE1BBF0329300A128A119E
:100A0200C8210A128A112930F5000030F6000A12B4
:100A12008A15EC260A128A1183120313851C122DE1
:100A2200132D302D8518162D172D132D34308312CA
:100A32000313D500F130D400D40B1D2DD50B1D2D81
:100A4200013083120313D4005408A6072608803A03
:100A5200603E031C2D2D2E2D302D1F30A600051DAE
:100A6200332D342D512D0519372D382D342D343099
:100A720083120313D500F130D400D40B3E2DD50BD5
:100A82003E2DFF3083120313D4005408A607260814
:100A9200803A7F3E03184E2D4F2D512DA601A60AF6
:100AA20002302706031D562D572DBB2DF401F40AE3
:100AB20001300A128A1572270A128A1178308312BB
:100AC2000313BD002508BE00BF01BE1BBF032930B2
:100AD2000A128A11C8210A128A112930F50000303F
:100AE200F6000A128A15EC260A128A1183120313DF
:100AF200851C7C2D7D2D9A2D8518802D812D7D2D97
:100B0200343083120313D500F130D400D40B872D77
:100B1200D50B872D013083120313D4005408A50787
:100B22002508803A733E031C972D982D9A2D0C3080
:100B3200A500051D9D2D9E2DBB2D0519A12DA22DB4
:100B42009E2D343083120313D500F130D400D40B20
:100B5200A82DD50BA82DFF3083120313D4005408FF
:100B6200A5072508803A7F3E0318B82DB92DBB2D65
:100B7200A501A50A03302706031DC02DC12D222E73
:100B8200F401F40A01300A128A1572270A128A1134
:100B9200643083120313BD002408BE00BF01BE1BD4
:100BA200BF0329300A128A11C8210A128A11293078
:100BB200F5000030F6000A128A15EC260A128A1194
:100BC20083120313851CE62DE72D042E8518EA2DCA
:100BD200EB2DE72D343083120313D500F130D4000E
:100BE200D40BF12DD50BF12D013083120313D40058
:100BF2005408A4072408803A1C3E031C012E022E2E
:100C0200042E6330A400051D072E082E222E05197E
:100C12000B2E0C2E082E343083120313D500F13024
:100C2200D400D40B122ED50B122EFF3083120313D5
:100C3200D4005408A407240A031D202E212E222E9C
:100C4200A40104302706031D272E282EB02EF401FE
:100C5200F40A01300A128A1572270A128A112D30FB
:100C620083120313BD002308BE00BF01BE1BBF03D6
:100C720029300A128A11C8210A128A112930F50074
:100C82000030F6000A128A15EC260A128A11F401C3
:100C9200F40A02300A128A1572270A128A1189305E
:100CA20083120313BD000B30F00023080A128A15C9
:100CB2006A250A128A11A03E83120313BE0029304C
:100CC2000A128A11C8210A128A112930F50000304D
:100CD200F6000A128A15EC260A128A1183120313ED
:100CE200851C742E752E922E8518782E792E752ECF
:100CF200343083120313D500F130D400D40B7F2E8D
:100D0200D50B7F2E013083120313D4005408A3079E
:100D12002308803A793E031C8F2E902E922E0630A5
:100D2200A300051D952E962EB02E0519992E9A2EEA
:100D3200962E343083120313D500F130D400D40B35
:100D4200A02ED50BA02EFF3083120313D40054081B
:100D5200A307230A031DAE2EAF2EB02EA30105302A
:100D62002706031DB52EB62E172FF401F40A013003
:100D72000A128A1572270A128A1159308312031332
:100D8200BD002208BE00BF01BE1BBF0329300A12EC
:100D92008A11C8210A128A112930F5000030F600A2
:100DA2000A128A15EC260A128A1183120313851C71
:100DB200DB2EDC2EF92E8518DF2EE02EDC2E3430D1
:100DC20083120313D500F130D400D40BE62ED50BD9
:100DD200E62E013083120313D4005408A20722081E
:100DE200803A683E031CF62EF72EF92E1730A20029
:100DF200051DFC2EFD2E172F0519002F012FFD2E8C
:100E0200343083120313D500F130D400D40B072FF2
:100E1200D50B072FFF3083120313D4005408A20707
:100E2200220A031D152F162F172FA201063027069F
:100E3200031D1C2F1D2F7E2FF401F40A01300A120C
:100E42008A1572270A128A110B3083120313BD000E
:100E52002108BE00BF01BE1BBF0329300A128A113E
:100E6200C8210A128A112930F5000030F6000A1250
:100E72008A15EC260A128A1183120313851C422F4B
:100E8200432F602F8518462F472F432F343083126C
:100E92000313D500F130D400D40B4D2FD50B4D2FB9
:100EA200013083120313D4005408A1072108803AA9
:100EB200443E031C5D2F5E2F602F3B30A100051DB9
:100EC200632F642F7E2F0519672F682F642F34300C
:100ED20083120313D500F130D400D40B6E2FD50B3F
:100EE2006E2FFF3083120313D4005408A107210A86
:100EF200031D7C2F7D2F7E2FA10107302706031DA6
:100F0200832F842FE52FF401F40A01300A128A1587
:100F120072270A128A114B3083120313BD00200874
:100F2200BE00BF01BE1BBF0329300A128A11C821AD
:100F32000A128A112930F5000030F6000A128A15C9
:100F4200EC260A128A1183120313851CA92FAA2FD9
:100F5200C72F8518AD2FAE2FAA2F3430831203135B
:100F6200D500F130D400D40BB42FD50BB42F0130FF
:100F720083120313D4005408A0072008803A443E89
:100F8200031CC42FC52FC72F3B30A000051DCA2F3D
:100F9200CB2FE52F0519CE2FCF2FCB2F3430831235
:100FA2000313D500F130D400D40BD52FD50BD52F98
:100FB200FF3083120313D4005408A007200A031D34
:100FC200E32FE42FE52FA00108008313ED30FD008D
:100FD2000030FE00CC30FF00A03084000A128A15D7
:100FE2005B250A128A11203084003D300A128A15CC
:0E0FF200EE240A128A1183010A128A111929AB
:1019DC0064008001840A0406031900340406EF2C09
:1019EC0083160313911483128C1DFD2CFE2CF92CE1
:1019FC008C11080083160313111483128C1D072DF0
:101A0C00082D032D8C110800831603131115831256
:101A1C008C1D112D122D0D2D8C1108008316031306
:101A2C009116111683128C1D1C2D1D2D182D8C1129
:101A3C00080083160313911583128C1D262D272D58
:101A4C00222D8C111308080000300A128A159725D4
:101A5C000A128A1501300A128A1597250A128A155C
:101A6C000800F00070088312031393008C1D3F2DA7
:101A7C00402D3C2D8C118316031311080800F10026
:101A8C00F0013A30710203184C2D4D2D552D30308C
:101A9C007102031C522D532D552DF001F00A700CC0
:101AAC0008007E088A007F0882000A128A155725D2
:101ABC000A128A158000840A04087D060319003472
:101ACC00FF0A0319FE0A5B2DF300F201731C6F2D44
:101ADC00702D742D7008F1007108F2070310F00DD1
:101AEC000310F30C7308031D7C2D7D2D6C2D7208D7
:101AFC000800F2007208F3000310F30C7830F000C9
:101B0C007008F3057308F00002300310F00CFF3E70
:101B1C00031D8B2D72080F397007F10073087107C4
:101B2C000800F30083120313081373080A128A15B2
:101B3C00D0250A128A158312031388170B30F20072
:101B4C006230F100F10BA82DF20BA82D00008312CE
:101B5C00031388130800F000831603138715071668
:101B6C007008940028308312031394008316031317
:101B7C00910180307006031DC42DC52DC82D133066
:101B8C009300CF2D7008031DCC2DCD2DCF2D1D30E6
:101B9C0093000800F000701CD42DD52DD92D831284
:101BAC0003130616DC2D831203130612F01CDF2D13
:101BBC00E02DE22D8616E32D8612701DE62DE72D05
:101BCC00E92D0617EA2D0613F01DED2DEE2DF02D47
:101BDC008617F12D86130800F401F501701CF72D02
:101BEC00F82DFE2D7208F4070318F50A7308F50793
:101BFC0001300310F20DF30DFF3E031DFF2D0130DC
:101C0C000310F10CF00CFF3E031D062E700871043E
:101C1C00031D112E122EF42D7508F1007408F0001E
:101C2C000800F1000A128A1500250A128A15D03014
:101C3C000A128A1537250A128A1571080A128A1592
:101C4C0037250A128A150A128A15F6240A128A15E1
:101C5C00D1300A128A1537250A128A150A128A15EA
:101C6C001F250A128A15F2000A128A1514250A1267
:101C7C008A150A128A150A250A128A157208080092
:101C8C00F40074080F39F2007408F039F300831271
:101C9C00031308177308F10004300310F10CFF3E16
:101CAC00031D532E71080A128A15D0250A128A15A3
:101CBC008312031388171A30F100F10B632E000006
:101CCC0083120313881372080A128A15D0250A127C
:101CDC008A158312031388171A30F100F10B742E36
:101CEC0000008312031388130800780884008317FC
:101CFC00791C831300300A128A1517260A128A15CA
:101D0C007F390A128A157F250A128A1580007608F7
:101D1C0084008317771C831301300A128A15172647
:101D2C000A128A157F390A128A157F250A128A151A
:101D3C008000740884008317751C831302300A1208
:101D4C008A1517260A128A153F390A128A157F2519
:101D5C000A128A1580000800780879040319B72E36
:101D6C00B82EE72EFD01FD0AC62E01300310F80D2A
:101D7C00F90DFF3E031DBC2E0130FC007C08FD0755
:101D8C00F91FC92ECA2EBB2E79087B02031DD02E3B
:101D9C0078087A02031CD32ED42EDA2E7808FA0295
:101DAC007908031CFB03FB0201300310F90CF80C3F
:101DBC00FF3E031DDB2E0130FD02031DE62EE72E38
:101DCC00CA2E7B08F9007A08F8000800FA01FB011A
:101DDC00112F7A087507F8007608F7000318F70A30
:101DEC00FA1FF92EF7037708F90079088312031309
:101DFC00FF00780884000A128A1103200A128A153F
:101E0C000A128A1546260A128A150130FA07031897
:101E1C00FB0A0030FB077A087507F8007608F70014
:101E2C000318F70AFA1F1B2FF7037708F900790834
:101E3C0083120313FF00780884000A128A1103200E
:101E4C000A128A15003A031D2C2F2D2FEF2E080095
:101E5C00F501F601700871040319352F362F6D2F1B
:101E6C00F701F70A442F01300310F00DF10DFF3E7E
:101E7C00031D3A2F0130F4007408F707F11F472FA8
:101E8C00482F392F01300310F50DF60DFF3E031DC1
:101E9C00492F71087302031D552F70087202031C21
:101EAC00582F592F602F7008F2027108031CF3038E
:101EBC00F302751401300310F10CF00CFF3E031DFE
:101ECC00612F0130F702031D6C2F6D2F482F760800
:101EDC00F1007508F0000800F6007603031D772F5B
:101EEC00782F952F74087F3EF9007908F50004309F
:101EFC000310F50CFF3E031D7E2F7508F7007908C3
:101F0C000F39F80077080A128A1597250A128A15D4
:101F1C0078080A128A1597250A128A15B72F0230EB
:101F2C007606031D9A2F9B2FB72F7408BF3EF9001E
:101F3C007908F50004300310F50CFF3E031DA12FAA
:101F4C007508F70079080F39F80077080A128A1516
:101F5C0097250A128A1578080A128A1597250A12EB
:101F6C008A1508007A08840083177B1C83130330BE
:101F7C000A128A1517260A128A157F390A128A152F
:101F8C007F250A128A158000740884008317751C3B
:101F9C00831304300A128A1517260A128A153F3940
:101FAC000A128A157F250A128A1580007608840089
:101FBC008317771C831305300A128A1517260A1209
:101FCC008A151F390A128A157F250A128A15800074
:101FDC00780884008317791C831306300A128A153B
:101FEC0017260A128A150A128A157F250A128A15D3
:041FFC008000080059
:08400000FF3FFF3FFF3FFF3FC0
:04400E00D420FF3F7C
:00000001FF
