:100000000A128A11F32FFF1B0D2883137F18831701
:100010000008840A0319FF0A080000308A00040857
:10002000840A82070034013400340A340034643412
:100030000034E83403341034273441344434433436
:0C0040003A340034253464342034003499
:1008EE0064008001840A0406031900340406782C7F
:1008FE0083160313111483128C1D862C872C822CC5
:10090E008C11080083160313111583128C1D902C65
:10091E00912C8C2C8C1108008316031391158312C5
:10092E008C1D9A2C9B2C962C8C1113080800F00011
:10093E0070088312031393008C1DA62CA72CA32CD6
:10094E008C118316031311080800831603178801F0
:10095E00890183160313860188018312031386010E
:10096E008801831603130F178F160F160F1480307E
:10097E000A128A11DF240A128A110800F300831268
:10098E000313081373080A128A11FE240A128A111D
:10099E008312031388170B30F2006230F100F10B53
:1009AE00D62CF20BD62C00008312031388130800EA
:1009BE00F00083160313871507167008940028306D
:1009CE008312031394008316031391018030700673
:1009DE00031DF22CF32CF62C13309300FD2C700813
:1009EE00031DFA2CFB2CFD2C1D3093000800F0008B
:1009FE00701C022D032D072D8312031306160A2DCC
:100A0E00831203130612F01C0D2D0E2D102D8616BB
:100A1E00112D8612701D142D152D172D0617182D3C
:100A2E000613F01D1B2D1C2D1E2D86171F2D861334
:100A3E000800F40074080F39F2007408F039F3005E
:100A4E008312031308177308F10004300310F10C1E
:100A5E00FF3E031D2D2D71080A128A11FE240A1263
:100A6E008A118312031388171A30F100F10B3D2DF2
:100A7E00000083120313881372080A128A11FE24CF
:100A8E000A128A118312031388171A30F100F10B20
:100A9E004E2D000083120313881308007808790482
:100AAE0003195A2D5B2D8A2DFD01FD0A692D01308A
:100ABE000310F80DF90DFF3E031D5F2D0130FC00F4
:100ACE007C08FD07F91F6C2D6D2D5E2D79087B02BC
:100ADE00031D732D78087A02031C762D772D7D2D3C
:100AEE007808FA027908031CFB03FB02013003109D
:100AFE00F90CF80CFF3E031D7E2D0130FD02031D87
:100B0E00892D8A2D6D2D7B08F9007A08F8000800D2
:100B1E00FA01FB01B42D7A087507F8007608F70084
:100B2E000318F70AFA1F9C2DF7037708F9007908C6
:100B3E0083120313FF00780884000A128A1103201F
:100B4E000A128A110A128A1120250A128A110130FC
:100B5E00FA070318FB0A0030FB077A087507F8003E
:100B6E007608F7000318F70AFA1FBE2DF703770869
:100B7E00F900790883120313FF00780884000A1223
:100B8E008A1103200A128A11003A031DCF2DD02D8F
:100B9E00922D0800F501F601700871040319D82D85
:100BAE00D92D102EF701F70AE72D01300310F00DA5
:100BBE00F10DFF3E031DDD2D0130F4007408F70723
:100BCE00F11FEA2DEB2DDC2D01300310F50DF60D86
:100BDE00FF3E031DEC2D71087302031DF82D7008E6
:100BEE007202031CFB2DFC2D032E7008F2027108FD
:100BFE00031CF303F302751401300310F10CF00C17
:100C0E00FF3E031D042E0130F702031D0F2E102E82
:100C1E00EB2D7608F1007508F0000800F60076035B
:100C2E00031D1A2E1B2E382E74087F3EF9007908EC
:100C3E00F50004300310F50CFF3E031D212E750840
:100C4E00F70079080F39F80077080A128A11C524BF
:100C5E000A128A1178080A128A11C5240A128A11F8
:100C6E005A2E02307606031D3D2E3E2E5A2E740845
:100C7E00BF3EF9007908F50004300310F50CFF3E75
:100C8E00031D442E7508F70079080F39F800770810
:100C9E000A128A11C5240A128A1178080A128A11B8
:100CAE00C5240A128A11080000300A128A11FE2485
:100CBE000A128A113430F500F130F400F40B652E6F
:100CCE00F50B652E6A2E03300A128A11C5240A12FC
:100CDE008A110D30F500FB30F400F40B742EF50B79
:100CEE00742E792E03300A128A11C5240A128A1123
:100CFE008530F400F40B812E03300A128A11C524BC
:100D0E000A128A1102300A128A11C5240A128A1195
:100D1E0002300A128A11C5240A128A1108300A12E8
:100D2E008A11C5240A128A1100300A128A11C524AA
:100D3E000A128A110C300A128A11C5240A128A115B
:100D4E0000300A128A11C5240A128A1106300A12BC
:100D5E008A11C5240A128A114230F400F40BB52E02
:100D6E00000008000A128A11AC240A128A110A1213
:100D7E008A115B260A128A11F401F40A01300A1252
:100D8E008A1115260A128A110B30F5008030F600F2
:100D9E000A128A118F250A128A110A128A117F24C9
:100DAE000A128A1151300A128A119E240A128A11CD
:100DBE000A128A1193240A128A1183120313A000B5
:100DCE000A128A1189240A128A110530831203131A
:100DDE00C200C20BF02EF32E0530F40001300A12C1
:100DEE008A1115260A128A11103083120313B500C8
:100DFE002008C200C3014208B6004308B7002130E4
:100E0E000A128A1119270A128A112130F5000030B0
:100E1E00F6000A128A118F250A128A11D42E0A128E
:100E2E008A11002883120313C0003630BB00DE2F58
:100E3E00253041060319242F252F2F2F400884001B
:100E4E004108831380000130B8003808C007DE2F38
:100E5E00BC010130B507FF30350784000A128A1134
:100E6E000D200A128A11C100B800B9013908003AE2
:100E7E000319422FDE2F3808003A0319EE2F643A79
:100E8E0003194D2F0D3A03194D2FDE2F3B08840009
:100E9E0083130008BE00840A0008BF000230B800A9
:100EAE003808BB07BF1F5C2F5D2F662F0330B800BD
:100EBE003808BC04BE09BF09BE0A0319BF0AC10126
:100ECE00C10A4108B8003807013E84000A128A118F
:100EDE000D200A128A11B9000A128A110D200A1267
:100EEE008A11BA003A083F02031D7F2F39083E02CD
:100EFE000318822F832F842F8E2F0130B8003808CD
:100F0E00C10705304106031D8D2F8E2F682F3C081B
:100F1E0003390319932F942F9D2F400884002D30F1
:100F2E00831380000130B8003808C0074108BD00A7
:100F3E00D52F0A30F8000030F9003D08B800380708
:100F4E00013E84000A128A110D200A128A11F00045
:100F5E000A128A110D200A128A11F1003F08F300BD
:100F6E003E08F2000A128A11D1250A128A1171085E
:100F7E00FB007008FA000A128A1155250A128A110E
:100F8E007808303E83120313C100400884004108E4
:100F9E00831380000130B8003808C007FF30B80056
:100FAE003808BD073D0A031DDD2FDE2FA02F0130AF
:100FBE00B507FF30350784000A128A110D200A1278
:100FCE008A11C1004108031DED2FEE2F1F2F40087F
:100FDE008400831380010800831320308400353091
:100FEE000A128A1177240A128A1183010A128A11AF
:020FFE00B92E0A
:08400000FF3FFF3FFF3FFF3FC0
:04400E00D420FF3F7C
:00000001FF
