:060000000A128A110C280F
:10000800FE00030EF5000A08F6000A128A111428E9
:100018000A128A110F28F80183010A128A11F62898
:10002800831203138C1D19281A284F280A128A11C3
:1000380092200A128A1170087104031924282528AD
:100048002A280A128A1106210A128A110A128A110A
:10005800A8200A128A1170037104031D3428352858
:100068003B280A128A11E5200A128A11F8000A129E
:100078008A11BD200A128A1170037104031D4528D4
:1000880046284C2877080A128A11D2200A128A11A7
:10009800831203138C1176088A00750E8300FE0EF6
:1000A8007E0E090083120313A0008316031387151D
:1000B8000716803094008312031320088316031355
:1000C8009300363083120313940001308316031310
:1000D80091008B170B17831203138C1183160313CC
:1000E8008C150800831603130F140F178F160F12A1
:1000F8008316031788018901FF30831603138500CF
:100108000810881008118811831203138801A03081
:100118000A128A1156200A128A1108008312031340
:100128001412F401F40A141B9A289B28A028941B83
:100138009E289F28A028F4017408F200F301720891
:10014800F0007308F1000800F40183160313941AF1
:10015800AE28AF28B5281419B228B328B528F40159
:10016800F40A7408F200F3017208F0007308F10051
:100178000800F40183160313941AC328C428CA2854
:10018800141DC728C828CA28F401F40A7408F20004
:10019800F3017208F0007308F1000800F000831200
:1001A8000313130883160313141070088312031320
:1001B80093001416831603131418E328E428DE2882
:1001C800080083120313130883160313141CED2865
:1001D800EE28E828831203131308F000141694116C
:1001E800700808000A128A1176200A128A11780803
:1001F80083120313880005080F39F700FB280A1239
:100208008A110C288312031314121308141394135D
:0602180014169411080009
:08400000FF3FFF3FFF3FFF3FC0
:04400E00D420FF3F7C
:00000001FF
