:060000000A128A110C280F
:10000800FE00030EF5000A08F6000A128A111528E8
:100018000A128A110F28F701F80183010A128A11BE
:100028001029831203130C1F1A281B281E281E08C8
:10003800F8000C138C1D2128222857280A128A112F
:10004800AC200A128A117008710403192C282D2873
:1000580032280A128A1120210A128A110A128A11D8
:10006800C2200A128A1170037104031D3C283D281E
:1000780043280A128A11FF200A128A11F7000A126D
:100088008A11D7200A128A1170037104031D4D28A2
:100098004E28542878080A128A11EC200A128A116C
:1000A800831203138C1176088A00750E8300FE0EE6
:1000B8007E0E09008316031708148901831603139B
:1000C8000F178F160F160F1450300A128A118C2032
:1000D8000A128A11831203130C13831603130C17C5
:1000E800831203139F131F13831603139F121F12E8
:1000F8009F13831203139F121F129F111F111F14A6
:10010800413083120313A100A10B88288B28080013
:1001180083120313A0008316031387150716803074
:1001280094008312031320088316031393003630B8
:1001380083120313940001308316031391008B1765
:100148000B17831203138C11831603138C150800E5
:10015800831203131412F401F40A141BB428B528EB
:10016800BA28941BB828B928BA28F4017408F200F0
:10017800F3017208F0007308F1000800F401831617
:100188000313941AC828C928CF281419CC28CD28B5
:10019800CF28F401F40A7408F200F3017208F000A1
:1001A8007308F1000800F40183160313941ADD287C
:1001B800DE28E428141DE128E228E428F401F40AE2
:1001C8007408F200F3017208F0007308F1000800E7
:1001D800F000831203131308831603131410700816
:1001E8008312031393001416831603131418FD289F
:1001F800FE28F82808008312031313088316031334
:10020800141C072908290229831203131308F00074
:1002180014169411700808000A128A115E200A1236
:100228008A11831203139F181A291B2915299F1451
:1002380015290A128A110C288312031314121308A1
:0A0248001413941314169411080007
:08400000FF3FFF3FFF3FFF3FC0
:04400E00D420FF3F7C
:00000001FF
